{
  "contractName": "contractPoE1",
  "abi": [
    {
      "constant": false,
      "inputs": [
        {
          "name": "document",
          "type": "string"
        }
      ],
      "name": "notraize",
      "outputs": [],
      "payable": false,
      "stateMutability": "nonpayable",
      "type": "function"
    },
    {
      "constant": true,
      "inputs": [
        {
          "name": "document",
          "type": "string"
        }
      ],
      "name": "proofFor",
      "outputs": [
        {
          "name": "",
          "type": "bytes32"
        }
      ],
      "payable": false,
      "stateMutability": "view",
      "type": "function"
    },
    {
      "constant": true,
      "inputs": [],
      "name": "proof",
      "outputs": [
        {
          "name": "",
          "type": "bytes32"
        }
      ],
      "payable": false,
      "stateMutability": "view",
      "type": "function"
    },
    {
      "inputs": [],
      "payable": false,
      "stateMutability": "nonpayable",
      "type": "constructor"
    }
  ],
  "bytecode": "0x6060604052341561000f57600080fd5b6102408061001e6000396000f300606060405260043610610057576000357c0100000000000000000000000000000000000000000000000000000000900463ffffffff168063d049f0381461005c578063f6c1acdf146100b9578063faf924cf14610132575b600080fd5b341561006757600080fd5b6100b7600480803590602001908201803590602001908080601f01602080910402602001604051908101604052809392919081815260200183838082843782019150505050505091905050610163565b005b34156100c457600080fd5b610114600480803590602001908201803590602001908080601f01602080910402602001604051908101604052809392919081815260200183838082843782019150505050505091905050610179565b60405180826000191660001916815260200191505060405180910390f35b341561013d57600080fd5b61014561020e565b60405180826000191660001916815260200191505060405180910390f35b61016c81610179565b6000816000191690555050565b60006002826000604051602001526040518082805190602001908083835b6020831015156101bc5780518252602082019150602081019050602083039250610197565b6001836020036101000a03801982511681845116808217855250505050505090500191505060206040518083038160008661646e5a03f115156101fe57600080fd5b5050604051805190509050919050565b600054815600a165627a7a7230582076d0767912f7c69d794130f8d45ad6a3352b4ddeaa5096b74889ab8fac8c77eb0029",
  "source": "pragma solidity ^0.4.4;\n\ncontract contractPoE1 {\n\n\tbytes32 public proof;\n\n\tfunction notraize(string document){\n\t\tproof = proofFor(document);\n\t}\n\t// read-only(constant) function does not cost gas\n\tfunction proofFor(string document) constant returns (bytes32){\n\t\treturn sha256(document);\n\t}\n\n  function contractPoE1() {\n    // constructor\n  }\n}\n",
  "sourcePath": "/home/narya/Desktop/EthereumGuide/solidityProject/contracts/contractPoE1.sol",
  "compiler": {
    "name": "solc",
    "version": "0.4.18+commit.9cf6e910.Emscripten.clang"
  },
  "schemaVersion": "1.0.1",
  "updatedAt": "2018-01-17T22:28:25.371Z"
}